{
  "contractName": "Arena",
  "abi": [
    {
      "inputs": [],
      "stateMutability": "nonpayable",
      "type": "constructor"
    },
    {
      "anonymous": false,
      "inputs": [
        {
          "indexed": true,
          "internalType": "bytes32",
          "name": "id",
          "type": "bytes32"
        }
      ],
      "name": "ChainlinkCancelled",
      "type": "event"
    },
    {
      "anonymous": false,
      "inputs": [
        {
          "indexed": true,
          "internalType": "bytes32",
          "name": "id",
          "type": "bytes32"
        }
      ],
      "name": "ChainlinkFulfilled",
      "type": "event"
    },
    {
      "anonymous": false,
      "inputs": [
        {
          "indexed": true,
          "internalType": "bytes32",
          "name": "id",
          "type": "bytes32"
        }
      ],
      "name": "ChainlinkRequested",
      "type": "event"
    },
    {
      "inputs": [
        {
          "internalType": "uint256",
          "name": "",
          "type": "uint256"
        }
      ],
      "name": "idToMatch",
      "outputs": [
        {
          "internalType": "address",
          "name": "admin",
          "type": "address"
        },
        {
          "internalType": "uint256",
          "name": "teamA",
          "type": "uint256"
        },
        {
          "internalType": "uint256",
          "name": "teamB",
          "type": "uint256"
        },
        {
          "internalType": "uint256",
          "name": "winner",
          "type": "uint256"
        },
        {
          "internalType": "uint256",
          "name": "totalPayoutA",
          "type": "uint256"
        },
        {
          "internalType": "uint256",
          "name": "totalPayoutB",
          "type": "uint256"
        },
        {
          "internalType": "uint256",
          "name": "bookieMargin",
          "type": "uint256"
        },
        {
          "internalType": "uint256",
          "name": "totalCollection",
          "type": "uint256"
        },
        {
          "internalType": "uint256",
          "name": "bookiePayout",
          "type": "uint256"
        },
        {
          "internalType": "uint256",
          "name": "oddsA",
          "type": "uint256"
        },
        {
          "internalType": "uint256",
          "name": "oddsB",
          "type": "uint256"
        },
        {
          "internalType": "string",
          "name": "apiUrl",
          "type": "string"
        },
        {
          "internalType": "bool",
          "name": "ended",
          "type": "bool"
        }
      ],
      "stateMutability": "view",
      "type": "function",
      "constant": true
    },
    {
      "inputs": [
        {
          "internalType": "address",
          "name": "",
          "type": "address"
        }
      ],
      "name": "reputation",
      "outputs": [
        {
          "internalType": "int256",
          "name": "",
          "type": "int256"
        }
      ],
      "stateMutability": "view",
      "type": "function",
      "constant": true
    },
    {
      "inputs": [],
      "name": "uuid",
      "outputs": [
        {
          "internalType": "uint256",
          "name": "",
          "type": "uint256"
        }
      ],
      "stateMutability": "view",
      "type": "function",
      "constant": true
    },
    {
      "inputs": [
        {
          "internalType": "uint256",
          "name": "_teamA",
          "type": "uint256"
        },
        {
          "internalType": "uint256",
          "name": "_teamB",
          "type": "uint256"
        },
        {
          "internalType": "uint256",
          "name": "_oddsA",
          "type": "uint256"
        },
        {
          "internalType": "uint256",
          "name": "_oddsB",
          "type": "uint256"
        },
        {
          "internalType": "string",
          "name": "_url",
          "type": "string"
        }
      ],
      "name": "createMatch",
      "outputs": [],
      "stateMutability": "payable",
      "type": "function",
      "payable": true
    },
    {
      "inputs": [
        {
          "internalType": "uint256",
          "name": "_matchId",
          "type": "uint256"
        },
        {
          "internalType": "uint256",
          "name": "_team",
          "type": "uint256"
        }
      ],
      "name": "bet",
      "outputs": [],
      "stateMutability": "payable",
      "type": "function",
      "payable": true
    },
    {
      "inputs": [
        {
          "internalType": "uint256",
          "name": "_matchId",
          "type": "uint256"
        },
        {
          "internalType": "uint256",
          "name": "_oddsA",
          "type": "uint256"
        },
        {
          "internalType": "uint256",
          "name": "_oddsB",
          "type": "uint256"
        }
      ],
      "name": "changeOdds",
      "outputs": [],
      "stateMutability": "nonpayable",
      "type": "function"
    },
    {
      "inputs": [
        {
          "internalType": "uint256",
          "name": "_matchId",
          "type": "uint256"
        }
      ],
      "name": "addMargin",
      "outputs": [],
      "stateMutability": "payable",
      "type": "function",
      "payable": true
    },
    {
      "inputs": [
        {
          "internalType": "uint256",
          "name": "_matchId",
          "type": "uint256"
        }
      ],
      "name": "closeMatch",
      "outputs": [],
      "stateMutability": "nonpayable",
      "type": "function"
    },
    {
      "inputs": [
        {
          "internalType": "bytes32",
          "name": "_requestId",
          "type": "bytes32"
        },
        {
          "internalType": "uint256",
          "name": "_result",
          "type": "uint256"
        }
      ],
      "name": "setResult",
      "outputs": [],
      "stateMutability": "nonpayable",
      "type": "function"
    },
    {
      "inputs": [
        {
          "internalType": "uint256",
          "name": "_matchId",
          "type": "uint256"
        },
        {
          "internalType": "uint256",
          "name": "_odds",
          "type": "uint256"
        }
      ],
      "name": "retrievePayout",
      "outputs": [],
      "stateMutability": "nonpayable",
      "type": "function"
    },
    {
      "inputs": [
        {
          "internalType": "uint256",
          "name": "_matchId",
          "type": "uint256"
        }
      ],
      "name": "marginCall",
      "outputs": [],
      "stateMutability": "nonpayable",
      "type": "function"
    },
    {
      "inputs": [
        {
          "internalType": "uint256",
          "name": "_matchId",
          "type": "uint256"
        }
      ],
      "name": "retrieveBookiePayout",
      "outputs": [],
      "stateMutability": "nonpayable",
      "type": "function"
    }
  ],
  "bytecode": "0x608060405260016004553480156200001657600080fd5b50620000276200010160201b60201c565b7356dd6586db0d08c6ce7b2f2805af28616e082455600660006101000a81548173ffffffffffffffffffffffffffffffffffffffff021916908373ffffffffffffffffffffffffffffffffffffffff1602179055507f623636303264313465343733346334396135653163653139643435613436333260078190555067016345785d8a00006008819055506001600b8190555033600c60006101000a81548173ffffffffffffffffffffffffffffffffffffffff021916908373ffffffffffffffffffffffffffffffffffffffff160217905550620001ef565b620001a973c89bd4e1632d3a43cb03aaad5262cbe4038bc57173ffffffffffffffffffffffffffffffffffffffff166338cc48316040518163ffffffff1660e01b815260040160206040518083038186803b1580156200016057600080fd5b505afa15801562000175573d6000803e3d6000fd5b505050506040513d60208110156200018c57600080fd5b8101908080519060200190929190505050620001ab60201b60201c565b565b80600260006101000a81548173ffffffffffffffffffffffffffffffffffffffff021916908373ffffffffffffffffffffffffffffffffffffffff16021790555050565b61356680620001ff6000396000f3fe6080604052600436106100a65760003560e01c806392549bf21161006457806392549bf2146103b9578063a43be948146103fe578063b9f794511461042c578063bb07e85d14610491578063dedeaae6146104bc578063ebcd5a3d146104f7576100a6565b8062a7079b146100ab5780634c8e93c2146100e6578063675d2ca01461021e5780636b010d26146102635780636b6a6793146103465780636ffcc71914610381575b600080fd5b3480156100b757600080fd5b506100e4600480360360208110156100ce57600080fd5b8101908080359060200190929190505050610546565b005b3480156100f257600080fd5b5061011f6004803603602081101561010957600080fd5b8101908080359060200190929190505050610773565b604051808e73ffffffffffffffffffffffffffffffffffffffff1673ffffffffffffffffffffffffffffffffffffffff1681526020018d81526020018c81526020018b81526020018a81526020018981526020018881526020018781526020018681526020018581526020018481526020018060200183151515158152602001828103825284818151815260200191508051906020019080838360005b838110156101d75780820151818401526020810190506101bc565b50505050905090810190601f1680156102045780820380516001836020036101000a031916815260200191505b509e50505050505050505050505050505060405180910390f35b34801561022a57600080fd5b506102616004803603604081101561024157600080fd5b81019080803590602001909291908035906020019092919050505061089e565b005b610344600480360360a081101561027957600080fd5b8101908080359060200190929190803590602001909291908035906020019092919080359060200190929190803590602001906401000000008111156102be57600080fd5b8201836020820111156102d057600080fd5b803590602001918460018302840111640100000000831117156102f257600080fd5b91908080601f016020809104026020016040519081016040528093929190818152602001838380828437600081840152601f19601f8201169050808301925050505050505091929192905050506111fa565b005b34801561035257600080fd5b5061037f6004803603602081101561036957600080fd5b81019080803590602001909291905050506115b2565b005b6103b76004803603604081101561039757600080fd5b810190808035906020019092919080359060200190929190505050611891565b005b3480156103c557600080fd5b506103fc600480360360408110156103dc57600080fd5b810190808035906020019092919080359060200190929190505050611af9565b005b61042a6004803603602081101561041457600080fd5b8101908080359060200190929190505050611df6565b005b34801561043857600080fd5b5061047b6004803603602081101561044f57600080fd5b81019080803573ffffffffffffffffffffffffffffffffffffffff169060200190929190505050611ffd565b6040518082815260200191505060405180910390f35b34801561049d57600080fd5b506104a6612015565b6040518082815260200191505060405180910390f35b3480156104c857600080fd5b506104f5600480360360208110156104df57600080fd5b810190808035906020019092919050505061201b565b005b34801561050357600080fd5b506105446004803603606081101561051a57600080fd5b81019080803590602001909291908035906020019092919080359060200190929190505050612460565b005b806000600d600083815260200190815260200160002090508060000160009054906101000a900473ffffffffffffffffffffffffffffffffffffffff1673ffffffffffffffffffffffffffffffffffffffff163373ffffffffffffffffffffffffffffffffffffffff1614610623576040517f08c379a000000000000000000000000000000000000000000000000000000000815260040180806020018281038252600e8152602001807f6e6f7420617574686f72697a656400000000000000000000000000000000000081525060200191505060405180910390fd5b6000600d6000858152602001908152602001600020905080600c0160009054906101000a900460ff16156106bf576040517f08c379a00000000000000000000000000000000000000000000000000000000081526004018080602001828103825260178152602001807f6d617463682068617320616c726561647920656e64656400000000000000000081525060200191505060405180910390fd5b61076d81600b018054600181600116156101000203166002900480601f01602080910402602001604051908101604052809291908181526020018280546001816001161561010002031660029004801561075a5780601f1061072f5761010080835404028352916020019161075a565b820191906000526020600020905b81548152906001019060200180831161073d57829003601f168201915b5050505050856392549bf260e01b612753565b50505050565b600d6020528060005260406000206000915090508060000160009054906101000a900473ffffffffffffffffffffffffffffffffffffffff169080600101549080600201549080600301549080600401549080600501549080600601549080600701549080600801549080600901549080600a01549080600b018054600181600116156101000203166002900480601f0160208091040260200160405190810160405280929190818152602001828054600181600116156101000203166002900480156108815780601f1061085657610100808354040283529160200191610881565b820191906000526020600020905b81548152906001019060200180831161086457829003601f168201915b50505050509080600c0160009054906101000a900460ff1690508d565b6000600d6000848152602001908152602001600020905080600c0160009054906101000a900460ff16610939576040517f08c379a00000000000000000000000000000000000000000000000000000000081526004018080602001828103825260198152602001807f6d6174636820686173206e6f74206265656e20636c6f7365640000000000000081525060200191505060405180910390fd5b6000816003015414610e2257806001015481600301541415610bbb57600081600f0160003373ffffffffffffffffffffffffffffffffffffffff1673ffffffffffffffffffffffffffffffffffffffff16815260200190815260200160002060008481526020019081526020016000205411610a1d576040517f08c379a00000000000000000000000000000000000000000000000000000000081526004018080602001828103825260178152602001807f6e6f207061796f757420666f722074686973206f64647300000000000000000081525060200191505060405180910390fd5b600060648383600f0160003373ffffffffffffffffffffffffffffffffffffffff1673ffffffffffffffffffffffffffffffffffffffff1681526020019081526020016000206000868152602001908152602001600020540281610a7d57fe5b049050600082600f0160003373ffffffffffffffffffffffffffffffffffffffff1673ffffffffffffffffffffffffffffffffffffffff16815260200190815260200160002060008581526020019081526020016000208190555060003373ffffffffffffffffffffffffffffffffffffffff168260405180600001905060006040518083038185875af1925050503d8060008114610b38576040519150601f19603f3d011682016040523d82523d6000602084013e610b3d565b606091505b5050905080610bb4576040517f08c379a000000000000000000000000000000000000000000000000000000000815260040180806020018281038252600f8152602001807f7472616e73666572206661696c6564000000000000000000000000000000000081525060200191505060405180910390fd5b5050610e1d565b60008160100160003373ffffffffffffffffffffffffffffffffffffffff1673ffffffffffffffffffffffffffffffffffffffff16815260200190815260200160002060008481526020019081526020016000205411610c83576040517f08c379a00000000000000000000000000000000000000000000000000000000081526004018080602001828103825260178152602001807f6e6f207061796f757420666f722074686973206f64647300000000000000000081525060200191505060405180910390fd5b60006064838360100160003373ffffffffffffffffffffffffffffffffffffffff1673ffffffffffffffffffffffffffffffffffffffff1681526020019081526020016000206000868152602001908152602001600020540281610ce357fe5b04905060008260100160003373ffffffffffffffffffffffffffffffffffffffff1673ffffffffffffffffffffffffffffffffffffffff16815260200190815260200160002060008581526020019081526020016000208190555060003373ffffffffffffffffffffffffffffffffffffffff168260405180600001905060006040518083038185875af1925050503d8060008114610d9e576040519150601f19603f3d011682016040523d82523d6000602084013e610da3565b606091505b5050905080610e1a576040517f08c379a000000000000000000000000000000000000000000000000000000000815260040180806020018281038252600f8152602001807f7472616e73666572206661696c6564000000000000000000000000000000000081525060200191505060405180910390fd5b50505b6111f5565b600081600f0160003373ffffffffffffffffffffffffffffffffffffffff1673ffffffffffffffffffffffffffffffffffffffff168152602001908152602001600020600084815260200190815260200160002054111561100b57600081600f0160003373ffffffffffffffffffffffffffffffffffffffff1673ffffffffffffffffffffffffffffffffffffffff1681526020019081526020016000206000848152602001908152602001600020549050600082600f0160003373ffffffffffffffffffffffffffffffffffffffff1673ffffffffffffffffffffffffffffffffffffffff16815260200190815260200160002060008581526020019081526020016000208190555060003373ffffffffffffffffffffffffffffffffffffffff168260405180600001905060006040518083038185875af1925050503d8060008114610f8c576040519150601f19603f3d011682016040523d82523d6000602084013e610f91565b606091505b5050905080611008576040517f08c379a000000000000000000000000000000000000000000000000000000000815260040180806020018281038252600f8152602001807f7472616e73666572206661696c6564000000000000000000000000000000000081525060200191505060405180910390fd5b50505b60008160100160003373ffffffffffffffffffffffffffffffffffffffff1673ffffffffffffffffffffffffffffffffffffffff16815260200190815260200160002060008481526020019081526020016000205411156111f45760008160100160003373ffffffffffffffffffffffffffffffffffffffff1673ffffffffffffffffffffffffffffffffffffffff168152602001908152602001600020600084815260200190815260200160002054905060008260100160003373ffffffffffffffffffffffffffffffffffffffff1673ffffffffffffffffffffffffffffffffffffffff16815260200190815260200160002060008581526020019081526020016000208190555060003373ffffffffffffffffffffffffffffffffffffffff168260405180600001905060006040518083038185875af1925050503d8060008114611175576040519150601f19603f3d011682016040523d82523d6000602084013e61117a565b606091505b50509050806111f1576040517f08c379a000000000000000000000000000000000000000000000000000000000815260040180806020018281038252600f8152602001807f7472616e73666572206661696c6564000000000000000000000000000000000081525060200191505060405180910390fd5b50505b5b505050565b82826001821015611273576040517f08c379a00000000000000000000000000000000000000000000000000000000081526004018080602001828103825260178152602001807f696e76616c6964206f64647320666f72207465616d204100000000000000000081525060200191505060405180910390fd5b60018110156112ea576040517f08c379a00000000000000000000000000000000000000000000000000000000081526004018080602001828103825260178152602001807f696e76616c6964206f64647320666f72207465616d204200000000000000000081525060200191505060405180910390fd5b6112f26132c4565b604051806101e001604052803373ffffffffffffffffffffffffffffffffffffffff1681526020018981526020018881526020016000815260200160008152602001600081526020013481526020016000815260200160008152602001878152602001868152602001858152602001600015158152602001600060405190808252806020026020018201604052801561139a5781602001602082028038833980820191505090505b50815260200160006040519080825280602002602001820160405280156113d05781602001602082028038833980820191505090505b50815250905080600d6000600b54815260200190815260200160002060008201518160000160006101000a81548173ffffffffffffffffffffffffffffffffffffffff021916908373ffffffffffffffffffffffffffffffffffffffff1602179055506020820151816001015560408201518160020155606082015181600301556080820151816004015560a0820151816005015560c0820151816006015560e082015181600701556101008201518160080155610120820151816009015561014082015181600a015561016082015181600b0190805190602001906114b7929190613352565b5061018082015181600c0160006101000a81548160ff0219169083151502179055506101a082015181600d0190805190602001906114f69291906133d2565b506101c082015181600e0190805190602001906115149291906133d2565b50905050600d6000600b548152602001908152602001600020600d01869080600181540180825580915050600190039060005260206000200160009091909190915055600d6000600b548152602001908152602001600020600e01859080600181540180825580915050600190039060005260206000200160009091909190915055600b600081548092919060010191905055505050505050505050565b806000600d600083815260200190815260200160002090508060000160009054906101000a900473ffffffffffffffffffffffffffffffffffffffff1673ffffffffffffffffffffffffffffffffffffffff163373ffffffffffffffffffffffffffffffffffffffff161461168f576040517f08c379a000000000000000000000000000000000000000000000000000000000815260040180806020018281038252600e8152602001807f6e6f7420617574686f72697a656400000000000000000000000000000000000081525060200191505060405180910390fd5b6000600d6000858152602001908152602001600020905080600c0160009054906101000a900460ff1661172a576040517f08c379a00000000000000000000000000000000000000000000000000000000081526004018080602001828103825260138152602001807f6d617463682069732079657420746f20656e640000000000000000000000000081525060200191505060405180910390fd5b60008160080154116117a4576040517f08c379a00000000000000000000000000000000000000000000000000000000081526004018080602001828103825260098152602001807f6e6f207061796f7574000000000000000000000000000000000000000000000081525060200191505060405180910390fd5b60008160080154905060003373ffffffffffffffffffffffffffffffffffffffff168260405180600001905060006040518083038185875af1925050503d806000811461180d576040519150601f19603f3d011682016040523d82523d6000602084013e611812565b606091505b5050905080611889576040517f08c379a00000000000000000000000000000000000000000000000000000000081526004018080602001828103825260128152602001807f7472616e73616374696f6e206661696c6564000000000000000000000000000081525060200191505060405180910390fd5b505050505050565b816000600d6000838152602001908152602001600020905080600c0160009054906101000a900460ff161561192e576040517f08c379a00000000000000000000000000000000000000000000000000000000081526004018080602001828103825260188152602001807f6d617463682068617320616c726561647920656e6465642e000000000000000081525060200191505060405180910390fd5b600034116119a4576040517f08c379a00000000000000000000000000000000000000000000000000000000081526004018080602001828103825260128152602001807f696e76616c69642062657420616d6f756e74000000000000000000000000000081525060200191505060405180910390fd5b6000600d600086815260200190815260200160002090506000841415611a4f573481600f0160003373ffffffffffffffffffffffffffffffffffffffff1673ffffffffffffffffffffffffffffffffffffffff1681526020019081526020016000206000836009015481526020019081526020016000206000828254019250508190555060648160090154340281611a3857fe5b048160040160008282540192505081905550611ae0565b6001841415611adf57348160100160003373ffffffffffffffffffffffffffffffffffffffff1673ffffffffffffffffffffffffffffffffffffffff168152602001908152602001600020600083600a0154815260200190815260200160002060008282540192505081905550606481600a0154340281611acc57fe5b0481600501600082825401925050819055505b5b3481600701600082825401925050819055505050505050565b816005600082815260200190815260200160002060009054906101000a900473ffffffffffffffffffffffffffffffffffffffff1673ffffffffffffffffffffffffffffffffffffffff163373ffffffffffffffffffffffffffffffffffffffff1614611bb1576040517f08c379a00000000000000000000000000000000000000000000000000000000081526004018080602001828103825260288152602001806135096028913960400191505060405180910390fd5b6005600082815260200190815260200160002060006101000a81549073ffffffffffffffffffffffffffffffffffffffff0219169055807f7cc135e0cebb02c3480ae5d74d377283180a2601f8f644edf7987b009316c63a60405160405180910390a26000600960008581526020019081526020016000205490506000600d60008381526020019081526020016000209050600181600c0160006101000a81548160ff0219169083151502179055508381600301819055508060010154841415611d1757806004015481600601548260070154011015611cf9576040517f08c379a000000000000000000000000000000000000000000000000000000000815260040180806020018281038252601a8152602001807f696e73756666696369656e74207061796f757420616d6f756e7400000000000081525060200191505060405180910390fd5b80600401548160060154826007015401038160080181905550611dc2565b8060020154841415611dc157806005015481600601548260070154011015611da7576040517f08c379a000000000000000000000000000000000000000000000000000000000815260040180806020018281038252601a8152602001807f696e73756666696369656e74207061796f757420616d6f756e7400000000000081525060200191505060405180910390fd5b806005015481600601548260070154010381600801819055505b5b611def8160000160009054906101000a900473ffffffffffffffffffffffffffffffffffffffff16612885565b5050505050565b806000600d600083815260200190815260200160002090508060000160009054906101000a900473ffffffffffffffffffffffffffffffffffffffff1673ffffffffffffffffffffffffffffffffffffffff163373ffffffffffffffffffffffffffffffffffffffff1614611ed3576040517f08c379a000000000000000000000000000000000000000000000000000000000815260040180806020018281038252600e8152602001807f6e6f7420617574686f72697a656400000000000000000000000000000000000081525060200191505060405180910390fd5b6000600d6000858152602001908152602001600020905080600c0160009054906101000a900460ff1615611f6f576040517f08c379a000000000000000000000000000000000000000000000000000000000815260040180806020018281038252600b8152602001807f6e6f7420616c6c6f77656400000000000000000000000000000000000000000081525060200191505060405180910390fd5b60003411611fe5576040517f08c379a000000000000000000000000000000000000000000000000000000000815260040180806020018281038252600e8152602001807f696e76616c696420616d6f756e7400000000000000000000000000000000000081525060200191505060405180910390fd5b34816006016000828254019250508190555050505050565b600a6020528060005260406000206000915090505481565b600b5481565b600c60009054906101000a900473ffffffffffffffffffffffffffffffffffffffff1673ffffffffffffffffffffffffffffffffffffffff163373ffffffffffffffffffffffffffffffffffffffff16146120de576040517f08c379a000000000000000000000000000000000000000000000000000000000815260040180806020018281038252600e8152602001807f6e6f7420617574686f72697a656400000000000000000000000000000000000081525060200191505060405180910390fd5b6000600d6000838152602001908152602001600020905080600c0160009054906101000a900460ff161561217a576040517f08c379a000000000000000000000000000000000000000000000000000000000815260040180806020018281038252600f8152602001807f6d617463682068617320656e646564000000000000000000000000000000000081525060200191505060405180910390fd5b8060040154816006015482600701540110806121a3575080600501548160060154826007015401105b612215576040517f08c379a00000000000000000000000000000000000000000000000000000000081526004018080602001828103825260108152602001807f6d617267696e207361746973666965640000000000000000000000000000000081525060200191505060405180910390fd5b600181600c0160006101000a81548160ff02191690831515021790555060003373ffffffffffffffffffffffffffffffffffffffff16600583600601548161225957fe5b0460405180600001905060006040518083038185875af1925050503d80600081146122a0576040519150601f19603f3d011682016040523d82523d6000602084013e6122a5565b606091505b505090508061231c576040517f08c379a00000000000000000000000000000000000000000000000000000000081526004018080602001828103825260128152602001807f7472616e73616374696f6e206661696c6564000000000000000000000000000081525060200191505060405180910390fd5b60008260000160009054906101000a900473ffffffffffffffffffffffffffffffffffffffff1673ffffffffffffffffffffffffffffffffffffffff16600560048560060154028161236a57fe5b0460405180600001905060006040518083038185875af1925050503d80600081146123b1576040519150601f19603f3d011682016040523d82523d6000602084013e6123b6565b606091505b505090508061242d576040517f08c379a00000000000000000000000000000000000000000000000000000000081526004018080602001828103825260128152602001807f7472616e73616374696f6e206661696c6564000000000000000000000000000081525060200191505060405180910390fd5b61245a8360000160009054906101000a900473ffffffffffffffffffffffffffffffffffffffff166128d6565b50505050565b826000600d600083815260200190815260200160002090508060000160009054906101000a900473ffffffffffffffffffffffffffffffffffffffff1673ffffffffffffffffffffffffffffffffffffffff163373ffffffffffffffffffffffffffffffffffffffff161461253d576040517f08c379a000000000000000000000000000000000000000000000000000000000815260040180806020018281038252600e8152602001807f6e6f7420617574686f72697a656400000000000000000000000000000000000081525060200191505060405180910390fd5b838360018210156125b6576040517f08c379a00000000000000000000000000000000000000000000000000000000081526004018080602001828103825260178152602001807f696e76616c6964206f64647320666f72207465616d204100000000000000000081525060200191505060405180910390fd5b600181101561262d576040517f08c379a00000000000000000000000000000000000000000000000000000000081526004018080602001828103825260178152602001807f696e76616c6964206f64647320666f72207465616d204200000000000000000081525060200191505060405180910390fd5b6000600d6000898152602001908152602001600020905080600c0160009054906101000a900460ff16156126c9576040517f08c379a000000000000000000000000000000000000000000000000000000000815260040180806020018281038252600f8152602001807f6d617463682068617320656e646564000000000000000000000000000000000081525060200191505060405180910390fd5b806009015487146127095786816009018190555080600d018790806001815401808255809150506001900390600052602060002001600090919091909150555b80600a01548614612749578581600a018190555080600e018690806001815401808255809150506001900390600052602060002001600090919091909150555b5050505050505050565b61275b61341f565b6127686007543084612927565b90506127b46040518060400160405280600381526020017f75726c000000000000000000000000000000000000000000000000000000000081525085836129589092919063ffffffff16565b6128336040518060400160405280600481526020017f70617468000000000000000000000000000000000000000000000000000000008152506040518060400160405280600981526020017f77696e6e65722e69640000000000000000000000000000000000000000000000815250836129589092919063ffffffff16565b6000612864600660009054906101000a900473ffffffffffffffffffffffffffffffffffffffff168360085461298b565b90508360096000838152602001908152602001600020819055505050505050565b6001600a60008373ffffffffffffffffffffffffffffffffffffffff1673ffffffffffffffffffffffffffffffffffffffff1681526020019081526020016000206000828254019250508190555050565b6001600a60008373ffffffffffffffffffffffffffffffffffffffff1673ffffffffffffffffffffffffffffffffffffffff1681526020019081526020016000206000828254039250508190555050565b61292f61341f565b61293761341f565b61294e85858584612c43909392919063ffffffff16565b9150509392505050565b61296f828460800151612cf390919063ffffffff16565b612986818460800151612cf390919063ffffffff16565b505050565b600030600454604051602001808373ffffffffffffffffffffffffffffffffffffffff1673ffffffffffffffffffffffffffffffffffffffff1660601b815260140182815260200192505050604051602081830303815290604052805190602001209050600454836060018181525050836005600083815260200190815260200160002060006101000a81548173ffffffffffffffffffffffffffffffffffffffff021916908373ffffffffffffffffffffffffffffffffffffffff160217905550807fb5e6e01e79f91267dc17b4e6314d5d4d03593d2ceee0fbb452b750bd70ea5af960405160405180910390a2600260009054906101000a900473ffffffffffffffffffffffffffffffffffffffff1673ffffffffffffffffffffffffffffffffffffffff16634000aea08584612ac387612d18565b6040518463ffffffff1660e01b8152600401808473ffffffffffffffffffffffffffffffffffffffff1673ffffffffffffffffffffffffffffffffffffffff16815260200183815260200180602001828103825283818151815260200191508051906020019080838360005b83811015612b4a578082015181840152602081019050612b2f565b50505050905090810190601f168015612b775780820380516001836020036101000a031916815260200191505b50945050505050602060405180830381600087803b158015612b9857600080fd5b505af1158015612bac573d6000803e3d6000fd5b505050506040513d6020811015612bc257600080fd5b8101908080519060200190929190505050612c28576040517f08c379a00000000000000000000000000000000000000000000000000000000081526004018080602001828103825260238152602001806134e66023913960400191505060405180910390fd5b60016004600082825401925050819055508090509392505050565b612c4b61341f565b612c5b8560800151610100612f1f565b508385600001818152505082856020019073ffffffffffffffffffffffffffffffffffffffff16908173ffffffffffffffffffffffffffffffffffffffff16815250508185604001907bffffffffffffffffffffffffffffffffffffffffffffffffffffffff191690817bffffffffffffffffffffffffffffffffffffffffffffffffffffffff191681525050849050949350505050565b612d008260038351612f73565b612d1381836130b890919063ffffffff16565b505050565b6060600360009054906101000a900473ffffffffffffffffffffffffffffffffffffffff1673ffffffffffffffffffffffffffffffffffffffff166340429946905060e01b60008084600001518560200151866040015187606001516001896080015160000151604051602401808973ffffffffffffffffffffffffffffffffffffffff1673ffffffffffffffffffffffffffffffffffffffff1681526020018881526020018781526020018673ffffffffffffffffffffffffffffffffffffffff1673ffffffffffffffffffffffffffffffffffffffff168152602001857bffffffffffffffffffffffffffffffffffffffffffffffffffffffff19167bffffffffffffffffffffffffffffffffffffffffffffffffffffffff1916815260200184815260200183815260200180602001828103825283818151815260200191508051906020019080838360005b83811015612e82578082015181840152602081019050612e67565b50505050905090810190601f168015612eaf5780820380516001836020036101000a031916815260200191505b509950505050505050505050604051602081830303815290604052907bffffffffffffffffffffffffffffffffffffffffffffffffffffffff19166020820180517bffffffffffffffffffffffffffffffffffffffffffffffffffffffff83818316178352505050509050919050565b612f2761348c565b600060208381612f3357fe5b0614612f4c5760208281612f4357fe5b06602003820191505b81836020018181525050604051808452600081528281016020016040525082905092915050565b60178111612fa057612f9a8160058460ff16901b60ff1617846130da90919063ffffffff16565b506130b3565b60ff8111612fe257612fc5601860058460ff16901b17846130da90919063ffffffff16565b50612fdc816001856130fa9092919063ffffffff16565b506130b2565b61ffff811161302557613008601960058460ff16901b17846130da90919063ffffffff16565b5061301f816002856130fa9092919063ffffffff16565b506130b1565b63ffffffff811161306a5761304d601a60058460ff16901b17846130da90919063ffffffff16565b50613064816004856130fa9092919063ffffffff16565b506130b0565b67ffffffffffffffff81116130af57613096601b60058460ff16901b17846130da90919063ffffffff16565b506130ad816008856130fa9092919063ffffffff16565b505b5b5b5b5b505050565b6130c061348c565b6130d28384600001515184855161311c565b905092915050565b6130e261348c565b6130f283846000015151846131d5565b905092915050565b61310261348c565b613113848560000151518585613223565b90509392505050565b61312461348c565b825182111561313257600080fd5b8460200151828501111561315d5761315c8560026131568860200151888701613284565b026132a0565b5b60008086518051876020830101935080888701111561317c5787860182525b60208701925050505b602084106131a85780518252602082019150602081019050602084039350613185565b60006001856020036101000a03905080198251168184511681811785525050879350505050949350505050565b6131dd61348c565b836020015183106131fa576131f98460028660200151026132a0565b5b8351805160208583010184815381861415613216576001820183525b5050508390509392505050565b61322b61348c565b8460200151848301111561324957613248856002868501026132a0565b5b60006001836101000a03905085518386820101858319825116178152815185880111156132765784870182525b505085915050949350505050565b6000818311156132965782905061329a565b8190505b92915050565b6060826000015190506132b38383612f1f565b506132be83826130b8565b50505050565b604051806101e00160405280600073ffffffffffffffffffffffffffffffffffffffff168152602001600081526020016000815260200160008152602001600081526020016000815260200160008152602001600081526020016000815260200160008152602001600081526020016060815260200160001515815260200160608152602001606081525090565b828054600181600116156101000203166002900490600052602060002090601f016020900481019282601f1061339357805160ff19168380011785556133c1565b828001600101855582156133c1579182015b828111156133c05782518255916020019190600101906133a5565b5b5090506133ce91906134a6565b5090565b82805482825590600052602060002090810192821561340e579160200282015b8281111561340d5782518255916020019190600101906133f2565b5b50905061341b91906134a6565b5090565b6040518060a0016040528060008019168152602001600073ffffffffffffffffffffffffffffffffffffffff16815260200160007bffffffffffffffffffffffffffffffffffffffffffffffffffffffff19168152602001600081526020016134866134cb565b81525090565b604051806040016040528060608152602001600081525090565b6134c891905b808211156134c45760008160009055506001016134ac565b5090565b90565b60405180604001604052806060815260200160008152509056fe756e61626c6520746f207472616e73666572416e6443616c6c20746f206f7261636c65536f75726365206d75737420626520746865206f7261636c65206f66207468652072657175657374a2646970667358221220ab49f8595e88668d65b0a90d644b5f78aee349ee1358d9abc828487ecc1baa3264736f6c63430006000033",
  "source": "pragma solidity ^0.6.0;\r\n\r\nimport \"./Reputation.sol\";\r\nimport \"./Finalizer.sol\";\r\n\r\n/**\r\n* @title Arena contract handles the main logic for decimal odds betting \r\n*/\r\ncontract Arena is Finalizer, Reputation{\r\n\r\n  uint256 public uuid;\r\n\r\n  address owner;\r\n\r\n  struct Match {\r\n    address admin;\r\n\r\n    uint256 teamA;\r\n    uint256 teamB;\r\n    uint256 winner;\r\n    uint256 totalPayoutA;\r\n    uint256 totalPayoutB;\r\n    uint256 bookieMargin;\r\n    uint256 totalCollection;\r\n    uint256 bookiePayout;\r\n\r\n    uint256 oddsA; //Granularity - 100\r\n    uint256 oddsB; \r\n\r\n    string apiUrl; //API url to retrieve the winner of the match \r\n\r\n    bool ended;\r\n\r\n    uint256[] oddsHistoryA;\r\n    uint256[] oddsHistoryB;\r\n\r\n    mapping(address => mapping(uint256 => uint256)) betA; \r\n    mapping(address => mapping(uint256 => uint256)) betB;\r\n  }\r\n\r\n  mapping(uint256 => Match) public idToMatch;\r\n\r\n  constructor() public Finalizer() {\r\n      uuid = 1;\r\n      owner = msg.sender;\r\n  }\r\n\r\n  /**\r\n  * @notice createMatch enables the setting up of a new betting book for a match.\r\n  * @param _teamA id of first team\r\n  * @param _teamB id of second team\r\n  * @param _oddsA initial odds for team A\r\n  * @param _oddsB initial odds for team B\r\n  * @param _url result url\r\n  */\r\n  function createMatch(\r\n    uint256 _teamA,\r\n    uint256 _teamB,\r\n    uint256 _oddsA,\r\n    uint256 _oddsB,\r\n    string memory _url\r\n  ) public payable validOdds(_oddsA, _oddsB) {\r\n\r\n    Match memory newMatch = Match(\r\n      msg.sender,\r\n      _teamA,\r\n      _teamB,\r\n      0,\r\n      0,\r\n      0,\r\n      msg.value,\r\n      0,\r\n      0,\r\n      _oddsA,\r\n      _oddsB,\r\n      _url,\r\n      false,\r\n      new uint256[](0),\r\n      new uint256[](0)\r\n    );\r\n\r\n    idToMatch[uuid] = newMatch;\r\n    idToMatch[uuid].oddsHistoryA.push(_oddsA);\r\n    idToMatch[uuid].oddsHistoryB.push(_oddsB);\r\n    uuid++;\r\n  }\r\n\r\n  /**\r\n   * @notice allows placing of bets\r\n   * @param _matchId the id of the match\r\n   * @param _team The team being selected\r\n   */\r\n  function bet(uint256 _matchId, uint256 _team) public payable validBet(_matchId) {\r\n    Match storage _match = idToMatch[_matchId];\r\n    \r\n    if(_team == 0) {\r\n      _match.betA[msg.sender][_match.oddsA] += msg.value;\r\n      _match.totalPayoutA += (msg.value * _match.oddsA) / 100;\r\n    } else if(_team == 1) {\r\n      _match.betB[msg.sender][_match.oddsB] += msg.value;\r\n      _match.totalPayoutB += (msg.value * _match.oddsB) / 100;\r\n    }\r\n\r\n    _match.totalCollection += msg.value;\r\n  }\r\n\r\n  /**\r\n   * @notice allows the admin to change the odds\r\n   */\r\n  function changeOdds(uint256 _matchId, uint256 _oddsA, uint256 _oddsB) \r\n    public onlyAdmin(_matchId) validOdds(_oddsA, _oddsB){\r\n      Match storage _match = idToMatch[_matchId];\r\n      require(!_match.ended, \"match has ended\");\r\n      if(_oddsA != _match.oddsA) {\r\n        _match.oddsA = _oddsA;\r\n        _match.oddsHistoryA.push(_oddsA);\r\n      }\r\n      if(_oddsB != _match.oddsB) {\r\n        _match.oddsB = _oddsB;\r\n        _match.oddsHistoryB.push(_oddsB);\r\n      }\r\n  }\r\n\r\n  /**\r\n   * @notice allows the admin to add to the margin of a bet\r\n   */\r\n  function addMargin(uint256 _matchId) public payable onlyAdmin(_matchId) {\r\n    Match storage _match = idToMatch[_matchId];\r\n    require(!_match.ended, \"not allowed\");\r\n    require(msg.value > 0, \"invalid amount\");\r\n    _match.bookieMargin += msg.value;\r\n  }\r\n\r\n  /**\r\n   * @notice allows the admin to close a match that is over\r\n   */\r\n  function closeMatch(uint256 _matchId) public onlyAdmin(_matchId) {\r\n    Match storage _match = idToMatch[_matchId];\r\n    require(!_match.ended, \"match has already ended\");\r\n    requestResult(_match.apiUrl, _matchId, this.setResult.selector);\r\n  } \r\n\r\n  /**\r\n   * @notice called by the oracle to set the result\r\n   */\r\n  function setResult(bytes32 _requestId, uint256 _result) public recordChainlinkFulfillment(_requestId){\r\n    uint256 _id = requestIdToMatch[_requestId];\r\n    Match storage _match = idToMatch[_id];\r\n    _match.ended = true;\r\n    _match.winner = _result;\r\n    if(_result == _match.teamA){\r\n      require((_match.totalCollection + _match.bookieMargin) >= _match.totalPayoutA, \r\n        \"insufficient payout amount\");\r\n      _match.bookiePayout = (_match.totalCollection + _match.bookieMargin) - _match.totalPayoutA;\r\n    } else if(_result == _match.teamB) {\r\n      require((_match.totalCollection + _match.bookieMargin) >= _match.totalPayoutB, \r\n        \"insufficient payout amount\");\r\n      _match.bookiePayout = (_match.totalCollection + _match.bookieMargin) - _match.totalPayoutB;\r\n    }\r\n\r\n    increaseRep(_match.admin);\r\n  }\r\n\r\n  function retrievePayout(uint256 _matchId, uint256 _odds) public {\r\n    Match storage _match = idToMatch[_matchId];\r\n    require(_match.ended, \"match has not been closed\");\r\n    if(_match.winner != 0) {\r\n      if(_match.winner == _match.teamA) {\r\n        require(_match.betA[msg.sender][_odds] > 0, \"no payout for this odds\");\r\n        uint256 _amt = (_match.betA[msg.sender][_odds] * _odds) / 100;\r\n        _match.betA[msg.sender][_odds] = 0;\r\n        (bool success, ) = msg.sender.call.value(_amt)(\"\");\r\n        require(success, \"transfer failed\");\r\n      } else {\r\n        require(_match.betB[msg.sender][_odds] > 0, \"no payout for this odds\");\r\n        uint256 _amt = (_match.betB[msg.sender][_odds] * _odds) / 100;\r\n        _match.betB[msg.sender][_odds] = 0;\r\n        (bool success, ) = msg.sender.call.value(_amt)(\"\");\r\n        require(success, \"transfer failed\");\r\n      }\r\n    } else {\r\n      if(_match.betA[msg.sender][_odds] > 0) {\r\n        uint256 _amt = _match.betA[msg.sender][_odds];\r\n        _match.betA[msg.sender][_odds] = 0;\r\n        (bool success, ) = msg.sender.call.value(_amt)(\"\");\r\n        require(success, \"transfer failed\");\r\n      } \r\n      if(_match.betB[msg.sender][_odds] > 0) {\r\n        uint256 _amt = _match.betB[msg.sender][_odds];\r\n        _match.betB[msg.sender][_odds] = 0;\r\n        (bool success, ) = msg.sender.call.value(_amt)(\"\");\r\n        require(success, \"transfer failed\");\r\n      }\r\n    } \r\n  } \r\n\r\n  //Margin call only owner\r\n  function marginCall(uint256 _matchId) public {\r\n    require(msg.sender == owner, \"not authorized\");\r\n    Match storage _match = idToMatch[_matchId];\r\n    require(!_match.ended, \"match has ended\");\r\n    require((_match.totalCollection + _match.bookieMargin) < _match.totalPayoutA ||\r\n      (_match.totalCollection + _match.bookieMargin) < _match.totalPayoutB, \r\n      \"margin satisfied\");\r\n    _match.ended = true;\r\n    (bool success1, ) = msg.sender.call.value(_match.bookieMargin / 5)(\"\");\r\n    require(success1, \"transaction failed\");\r\n    (bool success2, ) = _match.admin.call.value((_match.bookieMargin * 4) / 5)(\"\");\r\n    require(success2, \"transaction failed\");\r\n\r\n    decreaseRep(_match.admin);\r\n  }\r\n\r\n  //retrieveBookiePayout\r\n  function retrieveBookiePayout(uint256 _matchId) onlyAdmin(_matchId) public {\r\n    Match storage _match = idToMatch[_matchId];\r\n    require(_match.ended, \"match is yet to end\");\r\n    require(_match.bookiePayout > 0, \"no payout\");\r\n    uint256 _amt = _match.bookiePayout;\r\n    (bool success, ) = msg.sender.call.value(_amt)(\"\"); \r\n    require(success, \"transaction failed\");\r\n  }\r\n\r\n  modifier onlyAdmin(uint256 _id) {\r\n    Match storage _match  = idToMatch[_id];\r\n    require(msg.sender == _match.admin, \"not authorized\");\r\n    _;\r\n  } \r\n\r\n  modifier validBet(uint256 _id) {\r\n    Match storage _match = idToMatch[_id];\r\n    require(!_match.ended, \"match has already ended.\");\r\n    require(msg.value > 0, \"invalid bet amount\");\r\n    _;\r\n  }\r\n\r\n  modifier validOdds(uint256 _oddsA, uint256 _oddsB) {\r\n    require(_oddsA >= 1, \"invalid odds for team A\");\r\n    require(_oddsB >= 1, \"invalid odds for team B\");\r\n    _;\r\n  }\r\n}",
  "sourcePath": "C:/Users/AnshuJalan/Documents/Ethereum/Etherpunk/chain-arena/contracts/Arena.sol",
  "compiler": {
    "name": "solc",
    "version": "0.6.0+commit.26b70077.Emscripten.clang"
  },
  "schemaVersion": "3.3.1",
  "updatedAt": "2021-02-11T17:23:12.154Z",
  "networkType": "ethereum",
  "devdoc": {
    "methods": {
      "bet(uint256,uint256)": {
        "params": {
          "_matchId": "the id of the match",
          "_team": "The team being selected"
        }
      },
      "createMatch(uint256,uint256,uint256,uint256,string)": {
        "params": {
          "_oddsA": "initial odds for team A",
          "_oddsB": "initial odds for team B",
          "_teamA": "id of first team",
          "_teamB": "id of second team",
          "_url": "result url"
        }
      }
    },
    "title": "Arena contract handles the main logic for decimal odds betting "
  },
  "userdoc": {
    "methods": {
      "addMargin(uint256)": {
        "notice": "allows the admin to add to the margin of a bet"
      },
      "bet(uint256,uint256)": {
        "notice": "allows placing of bets"
      },
      "changeOdds(uint256,uint256,uint256)": {
        "notice": "allows the admin to change the odds"
      },
      "closeMatch(uint256)": {
        "notice": "allows the admin to close a match that is over"
      },
      "createMatch(uint256,uint256,uint256,uint256,string)": {
        "notice": "createMatch enables the setting up of a new betting book for a match."
      },
      "setResult(bytes32,uint256)": {
        "notice": "called by the oracle to set the result"
      }
    }
  }
}